:020000040000FA
:10000000822CFF3FFF3F213083120313FD00FD0BC5
:10001000072808000F3083120313FC004730FD004F
:10002000FD0B1028FC0B1028000000000800000049
:1000300000000800F201F101F001F801F3010030C5
:1000400008007B15FB1F2B280130F300F201F101A2
:10005000F001FA0DF20CFF30080083120313F801CF
:10006000F9011030FC00710DF80DF90D7408F8025B
:100070007508031C750FF902031845287408F80762
:1000800075080318750FF9070310F00DF10DFC0B3F
:100090003328080083120317971B51280313881372
:1000A0005328031388170317171B59280313081322
:1000B0005B28031308170317971A61280313881284
:1000C0006328031388160317171A692803130812E5
:1000D0006B280313081683165D1871288312081500
:1000E0007328831208118815172088110317971990
:1000F0007C28031388137E28031388170317171906
:100100008428031308138628031308170317971866
:100110008C28031388128E280313881603171718C8
:1001200094280313081296280313081683165D18E3
:100130009C28831208159E28831208118815172001
:10014000881183165D1CA6280A20A7280320080012
:10015000FA1FF213003008008312031795010530CF
:1001600015020318BA2815081407840020308000EF
:10017000950AAF2815081407840080019503150817
:10018000140796000A30F400F5011208F000130875
:10019000F1002D207808F0007908F1003030F007E8
:1001A000031716088400700880000A30F400F50177
:1001B0001208F0001308F1002D20700803179200B8
:1001C0007108930000307106031DE82800307006A6
:1001D000031DEB28ED289503BF28080083160313A1
:1001E0005D1083120317120897004A2083165D14CE
:1001F0000800A0017208031D0E297108F2007008A2
:10020000F100F001A0157208031D0E297108F2001B
:10021000F101A0112016720803191C292008F3020D
:10022000031D031C20290310F21B2429F00DF10DDE
:10023000F20DF30B142920290130FC001A20272984
:100240000230FC00212027290430FC00A8200800EF
:10025000831603135F088A005E0882000800FB14FF
:10026000FB1F3929FF30F300F200F100F000FA0D16
:10027000F20CFF300800FB15FF3008008312031357
:10028000FB01FA01F9018030F800F10CF00C031CBD
:1002900052297408F90775080318750FFA0703182F
:1002A000FB0A0310F01F5A297408FA07750803188F
:1002B000750FFB07FB0CFA0CF90CF80C031C452915
:1002C0007B08F3007A08F2007908F1007808F00062
:1002D00008007B14FB1F7429F201FA1FFF30F200A3
:1002E000F100F000FA0DF20CFF3008008312031346
:1002F000FB0173080319B3297208FA00F2178E3054
:10030000F302F31FB629F309F30A08307302031C42
:100310009929F300F10D7208F100F201083073021F
:10032000031C9929F300F10DF1017308031D03105B
:10033000A12973080319A1290310F20CF10CF30B86
:100340009C297B1B711CAB29031CAB29F10A0319E7
:10035000F20AF21BC229FA1FC529F209F109F10AB2
:100360000319F20AC529F201F101C5297B14FB1F0B
:10037000C829F201FA1FC829FF30F200F100FA0D76
:10038000F20CC8290130FC00CA290030FC00CA293F
:10039000FF30FC00FC080319CE2969217108F00028
:1003A0007208F10008008316031307118312121557
:1003B0000C3097040800831603131208013EF00066
:1003C000F1010318F10A6908F400F5013E21063035
:1003D000F2007008F4007108F50072080319F5299D
:1003E000F50CF40CF513FF3EEE290430F10074080F
:1003F000F00071080319002AF00D7010FF3EFA2971
:1004000030307005F3007408F0007508F100F10C4D
:10041000F00CF113F10CF00CF113700895000F3093
:100420009705730897040800831203137408003AB1
:10043000031D2F2A7508003A031D2F2A7608003A5B
:10044000031D2F2A7708003A031D2F2AFF30F000E2
:10045000FF30F1007F30F200FF30F300CA2A831230
:10046000031377080319BE2A73080319C12A7208F7
:1004700076068039FA00F217F617A0017208F80024
:100480007108FC007008FD007408FD027508031C6B
:10049000750FFC027608031C760FF802F801FC01C8
:1004A000FD01031C5A2A0310F20CF10CF00CF80C9D
:1004B0000130A0007708F302031C642A7E30200775
:1004C000F3070318C42A692A7E302007F307031CA8
:1004D000C72A1830FA07FD0DFC0DF80DF00DF10DCF
:1004E000F20DA00D7408F0027508031C750FF102DF
:1004F0007608031C760FF202760DA004201C822AD7
:100500007D148D2A7408F00775080318750FF1071C
:1005100076080318760AF2077D10FA031F307A0571
:10052000031D6B2A7B1B7D1CB42A0310F00DF10DFB
:10053000F20DA00D7408F0027508031C750FF1028E
:100540007608031C760FF202760D20040139FD07B0
:100550000318FC0A0319F80A031DB42AF80CFC0C52
:10056000FD0CF30A0319C42AFA1FF8137808F200E5
:100570007C08F1007D08F0000030C92A01303B21E1
:10058000C92A02301A20C92A04302F21C92A08306A
:1005900021200000080083160313EA01EB0169081B
:1005A000F2006908F300720884000008203A031D75
:1005B000DE2A6A086B04031DDE2AEB2A0130EA00FA
:1005C0000030EB00720884000008F000730884001B
:1005D00070088000F30A7208F100F20A71088400C2
:1005E0000008003A031DD32A6908F00008008312AE
:1005F00003139B011D129D12080083160313EE01C5
:10060000EF016908831203179000831603136A0829
:100610008312031791008030831603136A06F000DB
:1006200080307002031D162B0030690203182A2B3C
:100630000130EE000030EF006908003C8312031720
:100640009000831603136A08031C013E83120317EC
:100650009101910283120317100892001108930070
:10066000831603136B08831203179400AC20063023
:1006700083160313EC000030ED006D08003C031DF1
:10068000432B6C08003C03185E2B6C086B07F200D0
:1006900001306C02F0000030031C013E6D02F100DD
:1006A00070086B0784000008F0007208840070086E
:1006B00080000130EC02031CED033D2B6B0884002D
:1006C000203080006E086F0403197C2BEC01ED01D3
:1006D0006C086B0784000008203A031D732BEC0A9A
:1006E0000319ED0A682B0130EC02031CED036C08C2
:1006F0006B0784002D3080000800831203137008FC
:10070000F8007108F000F101F201F301FB01FC01B6
:100710009630F300FA01F01F932BF809F009F80A5C
:100720000319F00AFA177008F1007808F000F801D0
:10073000F201F920080028218A110A128000840A97
:10074000DE0A0319DF0AF003031D9B2B0800B92BF7
:10075000803083160313E900CC2BC030E900CC2B8A
:100760009430E900CC2BD430E900CC2B8030E90068
:10077000CC2B831603136908013A0319A82B6908C7
:10078000023A0319AD2B6908033A0319B02B690823
:10079000043A0319B32BB62B6A03F0006908F0077B
:1007A0007008E90070088312031797004A20831627
:1007B0005D10EC016C086B07840000080319EA2B3C
:1007C0006C086B0784000008831203179200EE2068
:1007D000EC0ADA2B5D140800831603138811081144
:1007E00008128812081388138312881108118813BD
:1007F0000813881208120A200A200A2088160816F0
:100800008815172088110A208815172088110A20BA
:100810008815172088110A200812881517208811BA
:100820000A20881517208811881288178815172024
:1008300088110A20881308168815172088110812B5
:100840008815172088110A20881517208811081686
:100850008815172088110A2008128815172088117A
:1008600088170817881608168815172088110A2077
:1008700083165D1408008312031395011712971253
:100880000800831603138710831212150C309D0481
:100890000800831603131208013EF000F10103184B
:1008A000F10A6908F400F5013E210630F2007008F3
:1008B000F4007108F50072080319632CF50CF40CB0
:1008C000F513FF3E5C2C0430F1007408F000710851
:1008D00003196E2CF00D7010FF3E682C303070053F
:1008E000F3007408F0007508F100F10CF00CF1133E
:1008F000F10CF00CF11370089B000F309D0573088C
:100900009D0408000627EC2301308312031797008B
:100910004A200C30031797004A20103083168600B7
:100920000130E9000130EA002B30EB00A723023050
:10093000E9000130EA002130EB00A7231F30FB0063
:100940007130FC001E30FD00FD0BA42CFC0BA42C10
:10095000FB0BA42C000001308312031797004A20E0
:100960001030900083128F018E0106140630FD00B6
:10097000FD0BB82C00000610061ABF2CBC2C10145E
:10098000061EC32CC02C10108316051085100910EC
:1009900089108312871007110F08F100F0010E086B
:1009A000F0040030F10470088316E0007108E100E3
:1009B0007D23AE30F4004730F5006B30F600843014
:1009C000F7001422762170088316E0007108E10018
:1009D0007008013EF20000300318013E7107F30079
:1009E0007208E0007308E10080307306F000803088
:1009F000013A7002031DFE2C2C307202031C472D9D
:100A00008030013AF000803061067002031D0A2D2B
:100A10006008903C031C472D6008E9006108EA006B
:100A2000E230EB00FD22E230E900CB2201308312FC
:100A3000031797004A2001308316E9000130EA00CD
:100A4000D130EB00A7230130E9000C30EA00E2309E
:100A5000EB00A7230130E9000F30EA006D30EB0016
:100A6000A7230230E9000130EA00AC30EB00A723F5
:100A7000091489108312071512149210633083161B
:100A80009200F7224124FF308316E9004924803088
:100A900083166106F00080307002031D512DC830AE
:100AA0006002031CA82D8030013AF00080306106FE
:100AB0007002031D5D2D60082C3C031CA82D6008EE
:100AC000E9006108EA00E230EB00FD22E230E900D3
:100AD000CB2201308312031797004A20013083167E
:100AE000E9000130EA005B30EB00A7230130E900A8
:100AF0000C30EA00E230EB00A7230130E9000F30B0
:100B0000EA006730EB00A7230230E9000130EA0079
:100B1000A030EB00A7230514851009148910831257
:100B200087140715121492106330831692003B2429
:100B3000D32155308316E900DB2112149210633063
:100B400083169200F7224124AA308316E900492433
:100B5000803083166106F00080307002031DB22DD4
:100B600064306002031C082E8030F0008030610683
:100B70007002031DBD2D6008C83C031C082E6008D0
:100B8000E9006108EA00E230EB00FD22E230E90012
:100B9000CB2201308312031797004A2001308316BD
:100BA000E9000130EA004C30EB00A7230130E900F6
:100BB0000C30EA00E230EB00A7230130E9000F30EF
:100BC000EA005830EB00A7230230E9000130EA00C8
:100BD000C530EB00A7230514851009148910831272
:100BE00087140715121492106330831692003B2469
:100BF000D321AA308316E900DB211214921063304E
:100C000083169200F722412455308316E9004924C7
:100C1000803083166106F00080307002031D122EB2
:100C200000306002031C672E8030F00080306106C7
:100C30007002031D1D2E6008643C031C672E6008B3
:100C4000E9006108EA00E230EB00FD22E230E90051
:100C5000CB2201308312031797004A2001308316FC
:100C6000E9000130EA00B930EB00A7230130E900C8
:100C70000C30EA00E230EB00A7230130E9000F302E
:100C8000EA006A30EB00A7230230E9000130EA00F5
:100C90003F30EB00A723051485100910891083123B
:100CA00087140711121492106330831692003B24AC
:100CB000D321FF308316E900DB2112149210633038
:100CC00083169200F72241248316E9014924053056
:100CD000FB000F30FC00F130FD00FD0B6D2EFC0B16
:100CE0006D2EFB0B6D2EB22C742EFF3FFF3FFF3F8E
:100CF000FF3FFF3F203420342034533479347334A1
:100D0000743465346D3400342034573461347434B1
:100D10006534723420344434693473347434723436
:100D2000693462347534743469346F346E34003429
:100D3000573450344D343D344834203457344434DF
:100D40004D343D345334703400345734613474348A
:100D50006534723420344C342E3420343D34203405
:100D6000003463346D340034573461347434653482
:100D7000723420344C342E3420343D34203400344A
:100D8000573450344D343D34533470342034573458
:100D900044344D343D344834003457346134743471
:100DA0006534723420344C342E3420343D342034B5
:100DB0000034573450344D343D344C34203457349F
:100DC00044344D343D344D3400345734613474343C
:100DD0006534723420344C342E3420343D34203485
:100DE0000034573450344D343D344D34203457346E
:100DF00044344D343D344C34003463346D34003469
:100E000063346D34003463346D3400342130840035
:100E1000463083120313F0007A308316DE0006306A
:100E2000DF009B23A03084000C3083120313F000FA
:100E3000D9308316DE000630DF009B236730840044
:100E4000033083120313F000FD308316DE000630FA
:100E5000DF009B23AC308400193083120313F000B1
:100E6000C0308316DE000630DF009B236A3084002A
:100E7000033083120313F00003308316DE000730C3
:100E8000DF009B23C53084000C3083120313F00075
:100E9000F1308316DE000630DF009B236D308400C6
:100EA000033083120313F00000308316DE00073096
:100EB000DF009B23D13084000C3083120313F00039
:100EC000E5308316DE000630DF009B230800FF3F7D
:100ED000FF3FFF3FFF3FFF3FFF3FFF3FFF3FFF3F22
:100EE000FF3FFF3FFF3FFF3FFF3FFF3FFF3FFF3F12
:100EF000FF3FFF3FFF3FFF3FFF3FFF3FFF3FFF3F02
:100F0000FF3FFF3FFF3FFF3FFF3FFF3FFF3FFF3FF1
:04400E007A3FFF3FB7
:00000001FF
